:100000000C942E000C9438000C9438000C9438009A
:100010000C9438000C9438000C9438000C94380080
:100020000C9438000C9438000C9438000C94380070
:100030000C9438000C9438000C9438000C94380060
:100040000C9438000C9438000C9438000C94380050
:100050000C9438000C9438000C94380011241FBE06
:10006000CFEFD8E0DEBFCDBF0E943A000C9456001F
:100070000C940000E1ECF0E0808188618083E2EC88
:10008000F0E08081866080831092C50087E68093CF
:10009000C400E0ECF0E0A6ECB0E080818823ECF74F
:1000A0009C91808185FFFDCF9C93F7CFF894FFCF83
:00000001FF
