S00C0000657830372E73726563D4
S11300000C9434000C9446000C9446000C94460066
S11300100C9446000C9446000C9446000C94460044
S11300200C9446000C9446000C9446000C94460034
S11300300C9446000C9446000C9446000C94460024
S11300400C9446000C9446000C9446000C94460014
S11300500C9446000C9474000C9446000C944600D6
S11300600C9446000C94460011241FBECFEFD8E038
S1130070DEBFCDBF21E0A0E0B1E001C01D92A13000
S1130080B207E1F70E9464000C94BF000C940000D6
S1130090019711F45D9A08955D980895019711F4FC
S11300A05D9A08955F98089580E887BD84B5806857
S11300B084BD84B5836084BD85B5836085BD0895A2
S11300C08AB1806E8AB908950E9460000E9454002B
S11300D08091000187BD81E090E00E94480081E0AA
S11300E090E00E944E00F4CF1F920F920FB60F9231
S11300F011242F933F934F935F936F937F938F9329
S11301009F93AF93BF93EF93FF9320917800309127
S113011079004FEF429FC001439F900D11246FEF70
S113012073E00E94AB0060930001EAE7F0E0808195
S113013080648083FF91EF91BF91AF919F918F91E4
S11301407F916F915F914F913F912F910F900FBECF
S11301500F901F901895AA1BBB1B51E107C0AA1F43
S1130160BB1FA617B70710F0A61BB70B881F991F54
S11301705A95A9F780959095BC01CD010895F894FE
S1050180FFCFAB
S9030000FC
