:100000000C9434000C9446000C9446000C94590057
:100010000C9446000C9446000C9446000C94460048
:100020000C9446000C9446000C9446000C94460038
:100030000C9446000C9446000C9446000C94460028
:100040000C9446000C9446000C9446000C94460018
:100050000C9446000C9446000C9446000C94460008
:100060000C9446000C94460011241FBECFEFD8E03C
:10007000DEBFCDBF21E0A0E0B1E001C01D92A23003
:10008000B207E1F70E946F000C9480000C9400000E
:1000900014B882E08AB91BB8289AE8E6F0E08081BB
:1000A00081608083EBE6F0E08081816080837894DA
:1000B00008951F920F920FB60F9211248F939F9362
:1000C000189B06C081E090E09093010180930001AD
:1000D0009F918F910F900FBE0F901F9018950E94C7
:1000E000480022E08091000190910101892BD1F319
:1000F0008BB182278BB91092010110920001F2CFCF
:04010000F894FFCFA1
:00000001FF
