:100000000C9434000C943E000C943E000C943E0082
:100010000C943E000C943E000C943E000C943E0068
:100020000C943E000C943E000C943E000C943E0058
:100030000C943E000C943E000C943E000C943E0048
:100040000C943E000C943E000C943E000C943E0038
:100050000C943E000C943E000C943E000C943E0028
:100060000C943E000C943E0011241FBECFEFD8E04C
:10007000DEBFCDBF0E9440000C9461000C940000D4
:1000800021E092E03FEF49E688E131504040804076
:10009000E1F700C0000085B1822785B985B18927C5
:1000A00085B93FEF49E688E1315040408040E1F7B3
:1000B00000C0000085B1892785B985B1822785B93F
:0600C000E1CFF894FFCF30
:00000001FF
